{
  "_format": "hh-sol-artifact-1",
  "contractName": "OnchainRiddle",
  "sourceName": "contracts/OnchainRiddle.sol",
  "abi": [
    {
      "inputs": [],
      "stateMutability": "nonpayable",
      "type": "constructor"
    },
    {
      "anonymous": false,
      "inputs": [
        {
          "indexed": true,
          "internalType": "address",
          "name": "user",
          "type": "address"
        },
        {
          "indexed": false,
          "internalType": "bool",
          "name": "correct",
          "type": "bool"
        },
        {
          "indexed": false,
          "internalType": "string",
          "name": "riddle",
          "type": "string"
        },
        {
          "indexed": false,
          "internalType": "string",
          "name": "answer",
          "type": "string"
        }
      ],
      "name": "AnswerAttempt",
      "type": "event"
    },
    {
      "anonymous": false,
      "inputs": [
        {
          "indexed": false,
          "internalType": "string",
          "name": "riddle",
          "type": "string"
        }
      ],
      "name": "RiddleSet",
      "type": "event"
    },
    {
      "anonymous": false,
      "inputs": [
        {
          "indexed": true,
          "internalType": "address",
          "name": "user",
          "type": "address"
        },
        {
          "indexed": false,
          "internalType": "string",
          "name": "riddle",
          "type": "string"
        },
        {
          "indexed": false,
          "internalType": "string",
          "name": "answer",
          "type": "string"
        }
      ],
      "name": "Winner",
      "type": "event"
    },
    {
      "inputs": [],
      "name": "bot",
      "outputs": [
        {
          "internalType": "address",
          "name": "",
          "type": "address"
        }
      ],
      "stateMutability": "view",
      "type": "function"
    },
    {
      "inputs": [],
      "name": "isActive",
      "outputs": [
        {
          "internalType": "bool",
          "name": "",
          "type": "bool"
        }
      ],
      "stateMutability": "view",
      "type": "function"
    },
    {
      "inputs": [],
      "name": "riddle",
      "outputs": [
        {
          "internalType": "string",
          "name": "",
          "type": "string"
        }
      ],
      "stateMutability": "view",
      "type": "function"
    },
    {
      "inputs": [
        {
          "internalType": "string",
          "name": "_riddle",
          "type": "string"
        },
        {
          "internalType": "bytes32",
          "name": "_answerHash",
          "type": "bytes32"
        }
      ],
      "name": "setRiddle",
      "outputs": [],
      "stateMutability": "nonpayable",
      "type": "function"
    },
    {
      "inputs": [
        {
          "internalType": "string",
          "name": "_answer",
          "type": "string"
        }
      ],
      "name": "submitAnswer",
      "outputs": [],
      "stateMutability": "nonpayable",
      "type": "function"
    },
    {
      "inputs": [],
      "name": "winner",
      "outputs": [
        {
          "internalType": "address",
          "name": "",
          "type": "address"
        }
      ],
      "stateMutability": "view",
      "type": "function"
    }
  ],
  "bytecode": "0x6080604052348015600f57600080fd5b50336000806101000a81548173ffffffffffffffffffffffffffffffffffffffff021916908373ffffffffffffffffffffffffffffffffffffffff160217905550610f7b8061005f6000396000f3fe608060405234801561001057600080fd5b50600436106100625760003560e01c806310814c37146100675780631fdf55851461008557806322f3e2d4146100a157806356049a86146100bf578063bb3e3159146100dd578063dfbf53ae146100f9575b600080fd5b61006f610117565b60405161007c9190610633565b60405180910390f35b61009f600480360381019061009a91906107de565b61013b565b005b6100a96102c8565b6040516100b69190610855565b60405180910390f35b6100c76102db565b6040516100d491906108ef565b60405180910390f35b6100f760048036038101906100f29190610911565b610369565b005b6101016105cc565b60405161010e9190610633565b60405180910390f35b60008054906101000a900473ffffffffffffffffffffffffffffffffffffffff1681565b60008054906101000a900473ffffffffffffffffffffffffffffffffffffffff1673ffffffffffffffffffffffffffffffffffffffff163373ffffffffffffffffffffffffffffffffffffffff16146101c9576040517f08c379a00000000000000000000000000000000000000000000000000000000081526004016101c0906109a6565b60405180910390fd5b600360149054906101000a900460ff1615610219576040517f08c379a000000000000000000000000000000000000000000000000000000000815260040161021090610a12565b60405180910390fd5b81600190816102289190610c48565b50806002819055506001600360146101000a81548160ff0219169083151502179055506000600360006101000a81548173ffffffffffffffffffffffffffffffffffffffff021916908373ffffffffffffffffffffffffffffffffffffffff1602179055507fc7c868b4cedbfd1ed1d9ab41c080a195ed463c01132c6c4b4b8d7983d1c5c29c826040516102bc91906108ef565b60405180910390a15050565b600360149054906101000a900460ff1681565b600180546102e890610a61565b80601f016020809104026020016040519081016040528092919081815260200182805461031490610a61565b80156103615780601f1061033657610100808354040283529160200191610361565b820191906000526020600020905b81548152906001019060200180831161034457829003601f168201915b505050505081565b600360149054906101000a900460ff166103b8576040517f08c379a00000000000000000000000000000000000000000000000000000000081526004016103af90610d66565b60405180910390fd5b600073ffffffffffffffffffffffffffffffffffffffff16600360009054906101000a900473ffffffffffffffffffffffffffffffffffffffff1673ffffffffffffffffffffffffffffffffffffffff1614610449576040517f08c379a000000000000000000000000000000000000000000000000000000000815260040161044090610dd2565b60405180910390fd5b6002548160405160200161045d9190610e2e565b60405160208183030381529060405280519060200120036105265733600360006101000a81548173ffffffffffffffffffffffffffffffffffffffff021916908373ffffffffffffffffffffffffffffffffffffffff1602179055506000600360146101000a81548160ff0219169083151502179055503373ffffffffffffffffffffffffffffffffffffffff167fc726fca7bf4e6105d130a1b90982de9ab3dd06e1fd50ccb9ddd13347585ccb1960018360405161051d929190610ec9565b60405180910390a25b3373ffffffffffffffffffffffffffffffffffffffff167fdc38850bc8e0182469a4e1cca8db9220cc97a775b01c77f025bb9ecd061776313373ffffffffffffffffffffffffffffffffffffffff16600360009054906101000a900473ffffffffffffffffffffffffffffffffffffffff1673ffffffffffffffffffffffffffffffffffffffff16146001846040516105c193929190610f00565b60405180910390a250565b600360009054906101000a900473ffffffffffffffffffffffffffffffffffffffff1681565b600073ffffffffffffffffffffffffffffffffffffffff82169050919050565b600061061d826105f2565b9050919050565b61062d81610612565b82525050565b60006020820190506106486000830184610624565b92915050565b6000604051905090565b600080fd5b600080fd5b600080fd5b600080fd5b6000601f19601f8301169050919050565b7f4e487b7100000000000000000000000000000000000000000000000000000000600052604160045260246000fd5b6106b58261066c565b810181811067ffffffffffffffff821117156106d4576106d361067d565b5b80604052505050565b60006106e761064e565b90506106f382826106ac565b919050565b600067ffffffffffffffff8211156107135761071261067d565b5b61071c8261066c565b9050602081019050919050565b82818337600083830152505050565b600061074b610746846106f8565b6106dd565b90508281526020810184848401111561076757610766610667565b5b610772848285610729565b509392505050565b600082601f83011261078f5761078e610662565b5b813561079f848260208601610738565b91505092915050565b6000819050919050565b6107bb816107a8565b81146107c657600080fd5b50565b6000813590506107d8816107b2565b92915050565b600080604083850312156107f5576107f4610658565b5b600083013567ffffffffffffffff8111156108135761081261065d565b5b61081f8582860161077a565b9250506020610830858286016107c9565b9150509250929050565b60008115159050919050565b61084f8161083a565b82525050565b600060208201905061086a6000830184610846565b92915050565b600081519050919050565b600082825260208201905092915050565b60005b838110156108aa57808201518184015260208101905061088f565b60008484015250505050565b60006108c182610870565b6108cb818561087b565b93506108db81856020860161088c565b6108e48161066c565b840191505092915050565b6000602082019050818103600083015261090981846108b6565b905092915050565b60006020828403121561092757610926610658565b5b600082013567ffffffffffffffff8111156109455761094461065d565b5b6109518482850161077a565b91505092915050565b7f4f6e6c7920626f742063616e2063616c6c20746869732066756e6374696f6e00600082015250565b6000610990601f8361087b565b915061099b8261095a565b602082019050919050565b600060208201905081810360008301526109bf81610983565b9050919050565b7f526964646c6520616c7265616479206163746976650000000000000000000000600082015250565b60006109fc60158361087b565b9150610a07826109c6565b602082019050919050565b60006020820190508181036000830152610a2b816109ef565b9050919050565b7f4e487b7100000000000000000000000000000000000000000000000000000000600052602260045260246000fd5b60006002820490506001821680610a7957607f821691505b602082108103610a8c57610a8b610a32565b5b50919050565b60008190508160005260206000209050919050565b60006020601f8301049050919050565b600082821b905092915050565b600060088302610af47fffffffffffffffffffffffffffffffffffffffffffffffffffffffffffffffff82610ab7565b610afe8683610ab7565b95508019841693508086168417925050509392505050565b6000819050919050565b6000819050919050565b6000610b45610b40610b3b84610b16565b610b20565b610b16565b9050919050565b6000819050919050565b610b5f83610b2a565b610b73610b6b82610b4c565b848454610ac4565b825550505050565b600090565b610b88610b7b565b610b93818484610b56565b505050565b5b81811015610bb757610bac600082610b80565b600181019050610b99565b5050565b601f821115610bfc57610bcd81610a92565b610bd684610aa7565b81016020851015610be5578190505b610bf9610bf185610aa7565b830182610b98565b50505b505050565b600082821c905092915050565b6000610c1f60001984600802610c01565b1980831691505092915050565b6000610c388383610c0e565b9150826002028217905092915050565b610c5182610870565b67ffffffffffffffff811115610c6a57610c6961067d565b5b610c748254610a61565b610c7f828285610bbb565b600060209050601f831160018114610cb25760008415610ca0578287015190505b610caa8582610c2c565b865550610d12565b601f198416610cc086610a92565b60005b82811015610ce857848901518255600182019150602085019450602081019050610cc3565b86831015610d055784890151610d01601f891682610c0e565b8355505b6001600288020188555050505b505050505050565b7f4e6f2061637469766520726964646c6500000000000000000000000000000000600082015250565b6000610d5060108361087b565b9150610d5b82610d1a565b602082019050919050565b60006020820190508181036000830152610d7f81610d43565b9050919050565b7f526964646c6520616c726561647920736f6c7665640000000000000000000000600082015250565b6000610dbc60158361087b565b9150610dc782610d86565b602082019050919050565b60006020820190508181036000830152610deb81610daf565b9050919050565b600081905092915050565b6000610e0882610870565b610e128185610df2565b9350610e2281856020860161088c565b80840191505092915050565b6000610e3a8284610dfd565b915081905092915050565b60008154610e5281610a61565b610e5c818661087b565b94506001821660008114610e775760018114610e8d57610ec0565b60ff198316865281151560200286019350610ec0565b610e9685610a92565b60005b83811015610eb857815481890152600182019150602081019050610e99565b808801955050505b50505092915050565b60006040820190508181036000830152610ee38185610e45565b90508181036020830152610ef781846108b6565b90509392505050565b6000606082019050610f156000830186610846565b8181036020830152610f278185610e45565b90508181036040830152610f3b81846108b6565b905094935050505056fea2646970667358221220a7a5dde5a814f66b7cb97172c255aff3a8058626e5b264e07642f5f9643c0f0d64736f6c634300081c0033",
  "linkReferences": {},
  "deployedLinkReferences": {}
}